{
  "address": "0x91710D0EDb30FB08088405d424Ec3cb1515db313",
  "abi": [
    {
      "inputs": [],
      "stateMutability": "nonpayable",
      "type": "constructor"
    },
    {
      "anonymous": false,
      "inputs": [
        {
          "indexed": true,
          "internalType": "address",
          "name": "owner",
          "type": "address"
        },
        {
          "indexed": true,
          "internalType": "address",
          "name": "approved",
          "type": "address"
        },
        {
          "indexed": true,
          "internalType": "uint256",
          "name": "tokenId",
          "type": "uint256"
        }
      ],
      "name": "Approval",
      "type": "event"
    },
    {
      "anonymous": false,
      "inputs": [
        {
          "indexed": true,
          "internalType": "address",
          "name": "owner",
          "type": "address"
        },
        {
          "indexed": true,
          "internalType": "address",
          "name": "operator",
          "type": "address"
        },
        {
          "indexed": false,
          "internalType": "bool",
          "name": "approved",
          "type": "bool"
        }
      ],
      "name": "ApprovalForAll",
      "type": "event"
    },
    {
      "anonymous": false,
      "inputs": [
        {
          "indexed": true,
          "internalType": "address",
          "name": "previousOwner",
          "type": "address"
        },
        {
          "indexed": true,
          "internalType": "address",
          "name": "newOwner",
          "type": "address"
        }
      ],
      "name": "OwnershipTransferred",
      "type": "event"
    },
    {
      "anonymous": false,
      "inputs": [
        {
          "indexed": true,
          "internalType": "address",
          "name": "from",
          "type": "address"
        },
        {
          "indexed": true,
          "internalType": "address",
          "name": "to",
          "type": "address"
        },
        {
          "indexed": true,
          "internalType": "uint256",
          "name": "tokenId",
          "type": "uint256"
        }
      ],
      "name": "Transfer",
      "type": "event"
    },
    {
      "inputs": [
        {
          "internalType": "address",
          "name": "to",
          "type": "address"
        },
        {
          "internalType": "uint256",
          "name": "tokenId",
          "type": "uint256"
        }
      ],
      "name": "approve",
      "outputs": [],
      "stateMutability": "nonpayable",
      "type": "function"
    },
    {
      "inputs": [
        {
          "internalType": "address",
          "name": "owner",
          "type": "address"
        }
      ],
      "name": "balanceOf",
      "outputs": [
        {
          "internalType": "uint256",
          "name": "",
          "type": "uint256"
        }
      ],
      "stateMutability": "view",
      "type": "function"
    },
    {
      "inputs": [],
      "name": "baseTokenURI",
      "outputs": [
        {
          "internalType": "string",
          "name": "",
          "type": "string"
        }
      ],
      "stateMutability": "view",
      "type": "function"
    },
    {
      "inputs": [],
      "name": "baseURI",
      "outputs": [
        {
          "internalType": "string",
          "name": "",
          "type": "string"
        }
      ],
      "stateMutability": "view",
      "type": "function"
    },
    {
      "inputs": [
        {
          "internalType": "uint256",
          "name": "id",
          "type": "uint256"
        }
      ],
      "name": "canWrapZone",
      "outputs": [
        {
          "internalType": "bool",
          "name": "",
          "type": "bool"
        }
      ],
      "stateMutability": "view",
      "type": "function"
    },
    {
      "inputs": [
        {
          "internalType": "uint256",
          "name": "zoneId",
          "type": "uint256"
        }
      ],
      "name": "claimUnpreparedZone",
      "outputs": [],
      "stateMutability": "nonpayable",
      "type": "function"
    },
    {
      "inputs": [
        {
          "internalType": "uint256",
          "name": "tokenId",
          "type": "uint256"
        }
      ],
      "name": "getApproved",
      "outputs": [
        {
          "internalType": "address",
          "name": "",
          "type": "address"
        }
      ],
      "stateMutability": "view",
      "type": "function"
    },
    {
      "inputs": [
        {
          "internalType": "address",
          "name": "owner",
          "type": "address"
        },
        {
          "internalType": "address",
          "name": "operator",
          "type": "address"
        }
      ],
      "name": "isApprovedForAll",
      "outputs": [
        {
          "internalType": "bool",
          "name": "",
          "type": "bool"
        }
      ],
      "stateMutability": "view",
      "type": "function"
    },
    {
      "inputs": [],
      "name": "map",
      "outputs": [
        {
          "internalType": "contract IEthMap",
          "name": "",
          "type": "address"
        }
      ],
      "stateMutability": "view",
      "type": "function"
    },
    {
      "inputs": [],
      "name": "name",
      "outputs": [
        {
          "internalType": "string",
          "name": "",
          "type": "string"
        }
      ],
      "stateMutability": "view",
      "type": "function"
    },
    {
      "inputs": [],
      "name": "owner",
      "outputs": [
        {
          "internalType": "address",
          "name": "",
          "type": "address"
        }
      ],
      "stateMutability": "view",
      "type": "function"
    },
    {
      "inputs": [
        {
          "internalType": "uint256",
          "name": "tokenId",
          "type": "uint256"
        }
      ],
      "name": "ownerOf",
      "outputs": [
        {
          "internalType": "address",
          "name": "",
          "type": "address"
        }
      ],
      "stateMutability": "view",
      "type": "function"
    },
    {
      "inputs": [
        {
          "internalType": "uint256",
          "name": "",
          "type": "uint256"
        }
      ],
      "name": "pendingZoneOwners",
      "outputs": [
        {
          "internalType": "address",
          "name": "",
          "type": "address"
        }
      ],
      "stateMutability": "view",
      "type": "function"
    },
    {
      "inputs": [
        {
          "internalType": "uint256",
          "name": "zoneId",
          "type": "uint256"
        }
      ],
      "name": "prepareToWrapZone",
      "outputs": [],
      "stateMutability": "nonpayable",
      "type": "function"
    },
    {
      "inputs": [],
      "name": "proxyRegistryAddress",
      "outputs": [
        {
          "internalType": "address",
          "name": "",
          "type": "address"
        }
      ],
      "stateMutability": "view",
      "type": "function"
    },
    {
      "inputs": [],
      "name": "renounceOwnership",
      "outputs": [],
      "stateMutability": "nonpayable",
      "type": "function"
    },
    {
      "inputs": [
        {
          "internalType": "address",
          "name": "from",
          "type": "address"
        },
        {
          "internalType": "address",
          "name": "to",
          "type": "address"
        },
        {
          "internalType": "uint256",
          "name": "tokenId",
          "type": "uint256"
        }
      ],
      "name": "safeTransferFrom",
      "outputs": [],
      "stateMutability": "nonpayable",
      "type": "function"
    },
    {
      "inputs": [
        {
          "internalType": "address",
          "name": "from",
          "type": "address"
        },
        {
          "internalType": "address",
          "name": "to",
          "type": "address"
        },
        {
          "internalType": "uint256",
          "name": "tokenId",
          "type": "uint256"
        },
        {
          "internalType": "bytes",
          "name": "_data",
          "type": "bytes"
        }
      ],
      "name": "safeTransferFrom",
      "outputs": [],
      "stateMutability": "nonpayable",
      "type": "function"
    },
    {
      "inputs": [
        {
          "internalType": "address",
          "name": "operator",
          "type": "address"
        },
        {
          "internalType": "bool",
          "name": "approved",
          "type": "bool"
        }
      ],
      "name": "setApprovalForAll",
      "outputs": [],
      "stateMutability": "nonpayable",
      "type": "function"
    },
    {
      "inputs": [
        {
          "internalType": "string",
          "name": "_baseURI",
          "type": "string"
        }
      ],
      "name": "setBaseURI",
      "outputs": [],
      "stateMutability": "nonpayable",
      "type": "function"
    },
    {
      "inputs": [
        {
          "internalType": "bytes4",
          "name": "interfaceId",
          "type": "bytes4"
        }
      ],
      "name": "supportsInterface",
      "outputs": [
        {
          "internalType": "bool",
          "name": "",
          "type": "bool"
        }
      ],
      "stateMutability": "view",
      "type": "function"
    },
    {
      "inputs": [],
      "name": "symbol",
      "outputs": [
        {
          "internalType": "string",
          "name": "",
          "type": "string"
        }
      ],
      "stateMutability": "view",
      "type": "function"
    },
    {
      "inputs": [
        {
          "internalType": "uint256",
          "name": "index",
          "type": "uint256"
        }
      ],
      "name": "tokenByIndex",
      "outputs": [
        {
          "internalType": "uint256",
          "name": "",
          "type": "uint256"
        }
      ],
      "stateMutability": "view",
      "type": "function"
    },
    {
      "inputs": [
        {
          "internalType": "address",
          "name": "owner",
          "type": "address"
        },
        {
          "internalType": "uint256",
          "name": "index",
          "type": "uint256"
        }
      ],
      "name": "tokenOfOwnerByIndex",
      "outputs": [
        {
          "internalType": "uint256",
          "name": "",
          "type": "uint256"
        }
      ],
      "stateMutability": "view",
      "type": "function"
    },
    {
      "inputs": [
        {
          "internalType": "uint256",
          "name": "_tokenId",
          "type": "uint256"
        }
      ],
      "name": "tokenURI",
      "outputs": [
        {
          "internalType": "string",
          "name": "",
          "type": "string"
        }
      ],
      "stateMutability": "view",
      "type": "function"
    },
    {
      "inputs": [],
      "name": "totalSupply",
      "outputs": [
        {
          "internalType": "uint256",
          "name": "",
          "type": "uint256"
        }
      ],
      "stateMutability": "view",
      "type": "function"
    },
    {
      "inputs": [
        {
          "internalType": "address",
          "name": "from",
          "type": "address"
        },
        {
          "internalType": "address",
          "name": "to",
          "type": "address"
        },
        {
          "internalType": "uint256",
          "name": "tokenId",
          "type": "uint256"
        }
      ],
      "name": "transferFrom",
      "outputs": [],
      "stateMutability": "nonpayable",
      "type": "function"
    },
    {
      "inputs": [
        {
          "internalType": "address",
          "name": "newOwner",
          "type": "address"
        }
      ],
      "name": "transferOwnership",
      "outputs": [],
      "stateMutability": "nonpayable",
      "type": "function"
    },
    {
      "inputs": [
        {
          "internalType": "uint256",
          "name": "zoneId",
          "type": "uint256"
        }
      ],
      "name": "unwrapZone",
      "outputs": [],
      "stateMutability": "nonpayable",
      "type": "function"
    },
    {
      "inputs": [
        {
          "internalType": "uint256",
          "name": "zoneId",
          "type": "uint256"
        }
      ],
      "name": "wrapZone",
      "outputs": [],
      "stateMutability": "nonpayable",
      "type": "function"
    }
  ],
  "transactionHash": "0x3916d86980861266b08c354b2e778f6a2461aba75c1a7be0e07f7d76e2f1b818",
  "args": [],
  "solcInputHash": "e24a0707a3340c5ddf3fd98149324b90",
  "bytecode": "0x60806040523480156200001157600080fd5b50604080518082018252600c81526b4554484d6170205a6f6e657360a01b602080830191909152825180840190935260058352645a4f4e455360d81b90830152908181620000666301ffc9a760e01b62000171565b81516200007b90600690602085019062000213565b5080516200009190600790602084019062000213565b50620000a46380ac58cd60e01b62000171565b620000b6635b5e139f60e01b62000171565b620000c863780e9d6360e01b62000171565b505050506000620000de620001f660201b60201c565b600a80546001600160a01b0319166001600160a01b038316908117909155604051919250906000907f8be0079c531659141344cd1fd0a4f28419497f9722a3daafe3b4186f6b6457e0908290a35060408051808201909152601581527f68747470733a2f2f6574686d61702e776f726c642f000000000000000000000060208201526200016b90620001fa565b620002bf565b6001600160e01b03198082161415620001d1576040805162461bcd60e51b815260206004820152601c60248201527f4552433136353a20696e76616c696420696e7465726661636520696400000000604482015290519081900360640190fd5b6001600160e01b0319166000908152602081905260409020805460ff19166001179055565b3390565b80516200020f90600990602084019062000213565b5050565b828054600181600116156101000203166002900490600052602060002090601f0160209004810192826200024b576000855562000296565b82601f106200026657805160ff191683800117855562000296565b8280016001018555821562000296579182015b828111156200029657825182559160200191906001019062000279565b50620002a4929150620002a8565b5090565b5b80821115620002a45760008155600101620002a9565b6126e080620002cf6000396000f3fe608060405234801561001057600080fd5b50600436106101da5760003560e01c80636ac3fbc311610104578063a22cb465116100a2578063cd7c032611610071578063cd7c03261461069d578063d547cfb7146106a5578063e985e9c5146106ad578063f2fde38b146106db576101da565b8063a22cb46514610584578063b88d4fde146105b2578063c758118414610678578063c87b56dd14610680576101da565b8063715018a6116100de578063715018a61461054f5780637774ce08146105575780638da5cb5b1461057457806395d89b411461057c576101da565b80636ac3fbc3146105045780636c0360eb1461052157806370a0823114610529576101da565b806323b872dd1161017c5780635164dd4a1161014b5780635164dd4a1461040757806355f804b3146104245780635cd0ff41146104ca5780636352211e146104e7576101da565b806323b872dd146103525780632f745c591461038857806342842e0e146103b45780634f6ccce7146103ea576101da565b8063081812fc116101b8578063081812fc146102b6578063095ea7b3146102ef578063172e56ed1461031b57806318160ddd14610338576101da565b806301ffc9a7146101df57806302bd4ee11461021a57806306fdde0314610239575b600080fd5b610206600480360360208110156101f557600080fd5b50356001600160e01b031916610701565b604080519115158252519081900360200190f35b6102376004803603602081101561023057600080fd5b5035610724565b005b610241610811565b6040805160208082528351818301528351919283929083019185019080838360005b8381101561027b578181015183820152602001610263565b50505050905090810190601f1680156102a85780820380516001836020036101000a031916815260200191505b509250505060405180910390f35b6102d3600480360360208110156102cc57600080fd5b50356108a7565b604080516001600160a01b039092168252519081900360200190f35b6102376004803603604081101561030557600080fd5b506001600160a01b038135169060200135610909565b6102376004803603602081101561033157600080fd5b50356109df565b610340610a4e565b60408051918252519081900360200190f35b6102376004803603606081101561036857600080fd5b506001600160a01b03813581169160208101359091169060400135610a5f565b6103406004803603604081101561039e57600080fd5b506001600160a01b038135169060200135610ab0565b610237600480360360608110156103ca57600080fd5b506001600160a01b03813581169160208101359091169060400135610adb565b6103406004803603602081101561040057600080fd5b5035610af6565b6102376004803603602081101561041d57600080fd5b5035610b0c565b6102376004803603602081101561043a57600080fd5b81019060208101813564010000000081111561045557600080fd5b82018360208201111561046757600080fd5b8035906020019184600183028401116401000000008311171561048957600080fd5b91908080601f016020809104026020016040519081016040528093929190818152602001838380828437600092019190915250929550610c75945050505050565b6102d3600480360360208110156104e057600080fd5b5035610cf2565b6102d3600480360360208110156104fd57600080fd5b5035610d0d565b6102376004803603602081101561051a57600080fd5b5035610d35565b610241610dff565b6103406004803603602081101561053f57600080fd5b50356001600160a01b0316610e60565b610237610ec8565b6102066004803603602081101561056d57600080fd5b5035610f86565b6102d3610fc1565b610241610fd0565b6102376004803603604081101561059a57600080fd5b506001600160a01b0381351690602001351515611031565b610237600480360360808110156105c857600080fd5b6001600160a01b0382358116926020810135909116916040820135919081019060808101606082013564010000000081111561060357600080fd5b82018360208201111561061557600080fd5b8035906020019184600183028401116401000000008311171561063757600080fd5b91908080601f016020809104026020016040519081016040528093929190818152602001838380828437600092019190915250929550611136945050505050565b6102d3611194565b6102416004803603602081101561069657600080fd5b50356111ac565b6102d3611275565b61024161128d565b610206600480360360408110156106c357600080fd5b506001600160a01b0381358116916020013516611297565b610237600480360360208110156106f157600080fd5b50356001600160a01b031661135f565b6001600160e01b0319811660009081526020819052604090205460ff165b919050565b61073561072f611474565b82611478565b6107705760405162461bcd60e51b815260040180806020018281038252602e8152602001806125af602e913960400191505060405180910390fd5b61077981611514565b73b6bbf89c3dbba20cb4d5cabaa4a386acbbab455e6388806b378261079c611474565b6040518363ffffffff1660e01b815260040180838152602001826001600160a01b0316815260200192505050602060405180830381600087803b1580156107e257600080fd5b505af11580156107f6573d6000803e3d6000fd5b505050506040513d602081101561080c57600080fd5b505050565b60068054604080516020601f600260001961010060018816150201909516949094049384018190048102820181019092528281526060939092909183018282801561089d5780601f106108725761010080835404028352916020019161089d565b820191906000526020600020905b81548152906001019060200180831161088057829003601f168201915b5050505050905090565b60006108b2826115e1565b6108ed5760405162461bcd60e51b815260040180806020018281038252602c8152602001806125dd602c913960400191505060405180910390fd5b506000908152600460205260409020546001600160a01b031690565b600061091482610d0d565b9050806001600160a01b0316836001600160a01b031614156109675760405162461bcd60e51b81526004018080602001828103825260218152602001806126326021913960400191505060405180910390fd5b806001600160a01b0316610979611474565b6001600160a01b0316148061099a575061099a81610995611474565b6115ee565b6109d55760405162461bcd60e51b81526004018080602001828103825260388152602001806125026038913960400191505060405180910390fd5b61080c838361161c565b336109e98261168a565b6001600160a01b031614610a2e5760405162461bcd60e51b81526004018080602001828103825260268152602001806124dc6026913960400191505060405180910390fd5b6000908152600b6020526040902080546001600160a01b03191633179055565b6000610a5a6002611719565b905090565b610a6a61072f611474565b610aa55760405162461bcd60e51b81526004018080602001828103825260318152602001806126776031913960400191505060405180910390fd5b61080c838383611724565b6001600160a01b0382166000908152600160205260408120610ad29083611870565b90505b92915050565b61080c83838360405180602001604052806000815250611136565b600080610b0460028461187c565b509392505050565b610b14611474565b6001600160a01b0316610b25610fc1565b6001600160a01b031614610b80576040805162461bcd60e51b815260206004820181905260248201527f4f776e61626c653a2063616c6c6572206973206e6f7420746865206f776e6572604482015290519081900360640190fd5b6000818152600b60205260409020546001600160a01b031615610bd45760405162461bcd60e51b81526004018080602001828103825260248152602001806126536024913960400191505060405180910390fd5b610bdd816115e1565b15610c195760405162461bcd60e51b81526004018080602001828103825260228152602001806123ea6022913960400191505060405180910390fd5b30610c238261168a565b6001600160a01b031614610c685760405162461bcd60e51b815260040180806020018281038252602c8152602001806126a8602c913960400191505060405180910390fd5b610c723382611898565b50565b610c7d611474565b6001600160a01b0316610c8e610fc1565b6001600160a01b031614610ce9576040805162461bcd60e51b815260206004820181905260248201527f4f776e61626c653a2063616c6c6572206973206e6f7420746865206f776e6572604482015290519081900360640190fd5b610c72816119c6565b600b602052600090815260409020546001600160a01b031681565b6000610ad58260405180606001604052806029815260200161256460299139600291906119dd565b6000818152600b60205260409020546001600160a01b03163314610d8a5760405162461bcd60e51b81526004018080602001828103825260288152602001806124646028913960400191505060405180910390fd5b30610d948261168a565b6001600160a01b031614610dd95760405162461bcd60e51b815260040180806020018281038252602c8152602001806126a8602c913960400191505060405180910390fd5b6000818152600b6020526040902080546001600160a01b0319169055610c723382611898565b60098054604080516020601f600260001961010060018816150201909516949094049384018190048102820181019092528281526060939092909183018282801561089d5780601f106108725761010080835404028352916020019161089d565b60006001600160a01b038216610ea75760405162461bcd60e51b815260040180806020018281038252602a81526020018061253a602a913960400191505060405180910390fd5b6001600160a01b0382166000908152600160205260409020610ad590611719565b610ed0611474565b6001600160a01b0316610ee1610fc1565b6001600160a01b031614610f3c576040805162461bcd60e51b815260206004820181905260248201527f4f776e61626c653a2063616c6c6572206973206e6f7420746865206f776e6572604482015290519081900360640190fd5b600a546040516000916001600160a01b0316907f8be0079c531659141344cd1fd0a4f28419497f9722a3daafe3b4186f6b6457e0908390a3600a80546001600160a01b0319169055565b6000818152600b60205260408120546001600160a01b031633148015610ad5575030610fb18361168a565b6001600160a01b03161492915050565b600a546001600160a01b031690565b60078054604080516020601f600260001961010060018816150201909516949094049384018190048102820181019092528281526060939092909183018282801561089d5780601f106108725761010080835404028352916020019161089d565b611039611474565b6001600160a01b0316826001600160a01b0316141561109f576040805162461bcd60e51b815260206004820152601960248201527f4552433732313a20617070726f766520746f2063616c6c657200000000000000604482015290519081900360640190fd5b80600560006110ac611474565b6001600160a01b03908116825260208083019390935260409182016000908120918716808252919093529120805460ff1916921515929092179091556110f0611474565b6001600160a01b03167f17307eab39ab6107e8899845ad3d59bd9653f200f220920489ca2b5937696c318360405180821515815260200191505060405180910390a35050565b611147611141611474565b83611478565b6111825760405162461bcd60e51b81526004018080602001828103825260318152602001806126776031913960400191505060405180910390fd5b61118e848484846119f4565b50505050565b73b6bbf89c3dbba20cb4d5cabaa4a386acbbab455e81565b60606111b661128d565b6111bf83611a46565b6040516020018083805190602001908083835b602083106111f15780518252601f1990920191602091820191016111d2565b51815160209384036101000a600019018019909216911617905285519190930192850191508083835b602083106112395780518252601f19909201916020918201910161121a565b6001836020036101000a038019825116818451168082178552505050505050905001925050506040516020818303038152906040529050919050565b73a5409ec958c83c3f309868babaca7c86dcb077c181565b6060610a5a610dff565b60008073a5409ec958c83c3f309868babaca7c86dcb077c19050826001600160a01b0316816001600160a01b031663c4552791866040518263ffffffff1660e01b815260040180826001600160a01b0316815260200191505060206040518083038186803b15801561130857600080fd5b505afa15801561131c573d6000803e3d6000fd5b505050506040513d602081101561133257600080fd5b50516001600160a01b0316141561134d576001915050610ad5565b61135784846115ee565b949350505050565b611367611474565b6001600160a01b0316611378610fc1565b6001600160a01b0316146113d3576040805162461bcd60e51b815260206004820181905260248201527f4f776e61626c653a2063616c6c6572206973206e6f7420746865206f776e6572604482015290519081900360640190fd5b6001600160a01b0381166114185760405162461bcd60e51b815260040180806020018281038252602681526020018061243e6026913960400191505060405180910390fd5b600a546040516001600160a01b038084169216907f8be0079c531659141344cd1fd0a4f28419497f9722a3daafe3b4186f6b6457e090600090a3600a80546001600160a01b0319166001600160a01b0392909216919091179055565b3390565b6000611483826115e1565b6114be5760405162461bcd60e51b815260040180806020018281038252602c8152602001806124b0602c913960400191505060405180910390fd5b60006114c983610d0d565b9050806001600160a01b0316846001600160a01b031614806115045750836001600160a01b03166114f9846108a7565b6001600160a01b0316145b80611357575061135781856115ee565b600061151f82610d0d565b905061152d8160008461080c565b61153860008361161c565b6000828152600860205260409020546002600019610100600184161502019091160415611576576000828152600860205260408120611576916122e2565b6001600160a01b03811660009081526001602052604090206115989083611b39565b506115a4600283611b45565b5060405182906000906001600160a01b038416907fddf252ad1be2c89b69c2b068fc378daa952ba7f163c4a11628f55a4df523b3ef908390a45050565b6000610ad5600283611b51565b6001600160a01b03918216600090815260056020908152604080832093909416825291909152205460ff1690565b600081815260046020526040902080546001600160a01b0319166001600160a01b038416908117909155819061165182610d0d565b6001600160a01b03167f8c5be1e5ebec7d5bd14f71427d1e84f3dd0314c0f7b2291e5b200ac8c7c3b92560405160405180910390a45050565b600073b6bbf89c3dbba20cb4d5cabaa4a386acbbab455e6001600160a01b03166311ee0ec5836040518263ffffffff1660e01b81526004018082815260200191505060606040518083038186803b1580156116e457600080fd5b505afa1580156116f8573d6000803e3d6000fd5b505050506040513d606081101561170e57600080fd5b506020015192915050565b6000610ad582611b5d565b826001600160a01b031661173782610d0d565b6001600160a01b03161461177c5760405162461bcd60e51b81526004018080602001828103825260298152602001806126096029913960400191505060405180910390fd5b6001600160a01b0382166117c15760405162461bcd60e51b815260040180806020018281038252602481526020018061248c6024913960400191505060405180910390fd5b6117cc83838361080c565b6117d760008261161c565b6001600160a01b03831660009081526001602052604090206117f99082611b39565b506001600160a01b038216600090815260016020526040902061181c9082611b61565b5061182960028284611b6d565b5080826001600160a01b0316846001600160a01b03167fddf252ad1be2c89b69c2b068fc378daa952ba7f163c4a11628f55a4df523b3ef60405160405180910390a4505050565b6000610ad28383611b83565b600080808061188b8686611be7565b9097909650945050505050565b6001600160a01b0382166118f3576040805162461bcd60e51b815260206004820181905260248201527f4552433732313a206d696e7420746f20746865207a65726f2061646472657373604482015290519081900360640190fd5b6118fc816115e1565b1561194e576040805162461bcd60e51b815260206004820152601c60248201527f4552433732313a20746f6b656e20616c7265616479206d696e74656400000000604482015290519081900360640190fd5b61195a6000838361080c565b6001600160a01b038216600090815260016020526040902061197c9082611b61565b5061198960028284611b6d565b5060405181906001600160a01b038416906000907fddf252ad1be2c89b69c2b068fc378daa952ba7f163c4a11628f55a4df523b3ef908290a45050565b80516119d9906009906020840190612326565b5050565b60006119ea848484611c62565b90505b9392505050565b6119ff848484611724565b611a0b84848484611d2c565b61118e5760405162461bcd60e51b815260040180806020018281038252603281526020018061240c6032913960400191505060405180910390fd5b606081611a6b57506040805180820190915260018152600360fc1b602082015261071f565b8160005b8115611a8357600101600a82049150611a6f565b60008167ffffffffffffffff81118015611a9c57600080fd5b506040519080825280601f01601f191660200182016040528015611ac7576020820181803683370190505b50859350905060001982015b8315611b3057600a840660300160f81b82828060019003935081518110611af657fe5b60200101907effffffffffffffffffffffffffffffffffffffffffffffffffffffffffffff1916908160001a905350600a84049350611ad3565b50949350505050565b6000610ad28383611ebe565b6000610ad28383611f84565b6000610ad28383612058565b5490565b6000610ad28383612070565b60006119ea84846001600160a01b0385166120ba565b81546000908210611bc55760405162461bcd60e51b81526004018080602001828103825260228152602001806123c86022913960400191505060405180910390fd5b826000018281548110611bd457fe5b9060005260206000200154905092915050565b815460009081908310611c2b5760405162461bcd60e51b815260040180806020018281038252602281526020018061258d6022913960400191505060405180910390fd5b6000846000018481548110611c3c57fe5b906000526020600020906002020190508060000154816001015492509250509250929050565b60008281526001840160205260408120548281611cfd5760405162461bcd60e51b81526004018080602001828103825283818151815260200191508051906020019080838360005b83811015611cc2578181015183820152602001611caa565b50505050905090810190601f168015611cef5780820380516001836020036101000a031916815260200191505b509250505060405180910390fd5b50846000016001820381548110611d1057fe5b9060005260206000209060020201600101549150509392505050565b6000611d40846001600160a01b0316612151565b611d4c57506001611357565b6000611e84630a85bd0160e11b611d61611474565b88878760405160240180856001600160a01b03168152602001846001600160a01b0316815260200183815260200180602001828103825283818151815260200191508051906020019080838360005b83811015611dc8578181015183820152602001611db0565b50505050905090810190601f168015611df55780820380516001836020036101000a031916815260200191505b5095505050505050604051602081830303815290604052907bffffffffffffffffffffffffffffffffffffffffffffffffffffffff19166020820180517bffffffffffffffffffffffffffffffffffffffffffffffffffffffff838183161783525050505060405180606001604052806032815260200161240c603291396001600160a01b0388169190612157565b90506000818060200190516020811015611e9d57600080fd5b50516001600160e01b031916630a85bd0160e11b1492505050949350505050565b60008181526001830160205260408120548015611f7a5783546000198083019190810190600090879083908110611ef157fe5b9060005260206000200154905080876000018481548110611f0e57fe5b600091825260208083209091019290925582815260018981019092526040902090840190558654879080611f3e57fe5b60019003818190600052602060002001600090559055866001016000878152602001908152602001600020600090556001945050505050610ad5565b6000915050610ad5565b60008181526001830160205260408120548015611f7a5783546000198083019190810190600090879083908110611fb757fe5b9060005260206000209060020201905080876000018481548110611fd757fe5b60009182526020808320845460029093020191825560019384015491840191909155835482528983019052604090209084019055865487908061201657fe5b6000828152602080822060026000199094019384020182815560019081018390559290935588815289820190925260408220919091559450610ad59350505050565b60009081526001919091016020526040902054151590565b600061207c8383612058565b6120b257508154600181810184556000848152602080822090930184905584548482528286019093526040902091909155610ad5565b506000610ad5565b60008281526001840160205260408120548061211f5750506040805180820182528381526020808201848152865460018181018955600089815284812095516002909302909501918255915190820155865486845281880190925292909120556119ed565b8285600001600183038154811061213257fe5b90600052602060002090600202016001018190555060009150506119ed565b3b151590565b60606119ea84846000858561216b85612151565b6121bc576040805162461bcd60e51b815260206004820152601d60248201527f416464726573733a2063616c6c20746f206e6f6e2d636f6e7472616374000000604482015290519081900360640190fd5b600080866001600160a01b031685876040518082805190602001908083835b602083106121fa5780518252601f1990920191602091820191016121db565b6001836020036101000a03801982511681845116808217855250505050505090500191505060006040518083038185875af1925050503d806000811461225c576040519150601f19603f3d011682016040523d82523d6000602084013e612261565b606091505b509150915061227182828661227c565b979650505050505050565b6060831561228b5750816119ed565b82511561229b5782518084602001fd5b60405162461bcd60e51b8152602060048201818152845160248401528451859391928392604401919085019080838360008315611cc2578181015183820152602001611caa565b50805460018160011615610100020316600290046000825580601f106123085750610c72565b601f016020900490600052602060002090810190610c7291906123b2565b828054600181600116156101000203166002900490600052602060002090601f01602090048101928261235c57600085556123a2565b82601f1061237557805160ff19168380011785556123a2565b828001600101855582156123a2579182015b828111156123a2578251825591602001919060010190612387565b506123ae9291506123b2565b5090565b5b808211156123ae57600081556001016123b356fe456e756d657261626c655365743a20696e646578206f7574206f6620626f756e64734554484d61705a6f6e65733a205a6f6e6520616c726561647920777261707065642e4552433732313a207472616e7366657220746f206e6f6e20455243373231526563656976657220696d706c656d656e7465724f776e61626c653a206e6577206f776e657220697320746865207a65726f20616464726573734554484d61705a6f6e65733a205a6f6e65206e6f7420707265706172656420666f7220777261702e4552433732313a207472616e7366657220746f20746865207a65726f20616464726573734552433732313a206f70657261746f7220717565727920666f72206e6f6e6578697374656e7420746f6b656e4554484d61705a6f6e65733a2063616c6c6572206973206e6f74207a6f6e65206f776e65722e4552433732313a20617070726f76652063616c6c6572206973206e6f74206f776e6572206e6f7220617070726f76656420666f7220616c6c4552433732313a2062616c616e636520717565727920666f7220746865207a65726f20616464726573734552433732313a206f776e657220717565727920666f72206e6f6e6578697374656e7420746f6b656e456e756d657261626c654d61703a20696e646578206f7574206f6620626f756e64734554484d61705a6f6e65733a2063616c6c6572206973206e6f74206f776e6572206e6f7220617070726f7665642e4552433732313a20617070726f76656420717565727920666f72206e6f6e6578697374656e7420746f6b656e4552433732313a207472616e73666572206f6620746f6b656e2074686174206973206e6f74206f776e4552433732313a20617070726f76616c20746f2063757272656e74206f776e65724554484d61705a6f6e65733a205a6f6e6520707265706172656420666f7220777261702e4552433732313a207472616e736665722063616c6c6572206973206e6f74206f776e6572206e6f7220617070726f7665644554484d61705a6f6e65733a20436f6e747261637420686173206e6f74207265636569766564207a6f6e652ea164736f6c6343000706000a",
  "devdoc": {
    "kind": "dev",
    "methods": {
      "approve(address,uint256)": {
        "details": "See {IERC721-approve}."
      },
      "balanceOf(address)": {
        "details": "See {IERC721-balanceOf}."
      },
      "baseURI()": {
        "details": "Returns the base URI set via {_setBaseURI}. This will be automatically added as a prefix in {tokenURI} to each token's URI, or to the token ID if no specific URI is set for that token ID."
      },
      "getApproved(uint256)": {
        "details": "See {IERC721-getApproved}."
      },
      "name()": {
        "details": "See {IERC721Metadata-name}."
      },
      "owner()": {
        "details": "Returns the address of the current owner."
      },
      "ownerOf(uint256)": {
        "details": "See {IERC721-ownerOf}."
      },
      "renounceOwnership()": {
        "details": "Leaves the contract without owner. It will not be possible to call `onlyOwner` functions anymore. Can only be called by the current owner. NOTE: Renouncing ownership will leave the contract without an owner, thereby removing any functionality that is only available to the owner."
      },
      "safeTransferFrom(address,address,uint256)": {
        "details": "See {IERC721-safeTransferFrom}."
      },
      "safeTransferFrom(address,address,uint256,bytes)": {
        "details": "See {IERC721-safeTransferFrom}."
      },
      "setApprovalForAll(address,bool)": {
        "details": "See {IERC721-setApprovalForAll}."
      },
      "supportsInterface(bytes4)": {
        "details": "See {IERC165-supportsInterface}. Time complexity O(1), guaranteed to always use less than 30 000 gas."
      },
      "symbol()": {
        "details": "See {IERC721Metadata-symbol}."
      },
      "tokenByIndex(uint256)": {
        "details": "See {IERC721Enumerable-tokenByIndex}."
      },
      "tokenOfOwnerByIndex(address,uint256)": {
        "details": "See {IERC721Enumerable-tokenOfOwnerByIndex}."
      },
      "totalSupply()": {
        "details": "See {IERC721Enumerable-totalSupply}."
      },
      "transferFrom(address,address,uint256)": {
        "details": "See {IERC721-transferFrom}."
      },
      "transferOwnership(address)": {
        "details": "Transfers ownership of the contract to a new account (`newOwner`). Can only be called by the current owner."
      }
    },
    "version": 1
  },
  "userdoc": {
    "kind": "user",
    "methods": {
      "baseTokenURI()": {
        "notice": "==========  Queries  ========== "
      },
      "constructor": {
        "notice": "==========  Constructor  ========== "
      },
      "isApprovedForAll(address,address)": {
        "notice": "Override isApprovedForAll to whitelist user's OpenSea proxy accounts to enable gas-less listings."
      },
      "map()": {
        "notice": "==========  Constants  ========== "
      },
      "pendingZoneOwners(uint256)": {
        "notice": "==========  Storage  ========== "
      },
      "setBaseURI(string)": {
        "notice": "==========  Actions  ========== "
      }
    },
    "version": 1
  },
  "storageLayout": {
    "storage": [
      {
        "astId": 123,
        "contract": "contracts/ETHMapZones.sol:ETHMapZones",
        "label": "_supportedInterfaces",
        "offset": 0,
        "slot": "0",
        "type": "t_mapping(t_bytes4,t_bool)"
      },
      {
        "astId": 579,
        "contract": "contracts/ETHMapZones.sol:ETHMapZones",
        "label": "_holderTokens",
        "offset": 0,
        "slot": "1",
        "type": "t_mapping(t_address,t_struct(UintSet)2945_storage)"
      },
      {
        "astId": 581,
        "contract": "contracts/ETHMapZones.sol:ETHMapZones",
        "label": "_tokenOwners",
        "offset": 0,
        "slot": "2",
        "type": "t_struct(UintToAddressMap)2322_storage"
      },
      {
        "astId": 585,
        "contract": "contracts/ETHMapZones.sol:ETHMapZones",
        "label": "_tokenApprovals",
        "offset": 0,
        "slot": "4",
        "type": "t_mapping(t_uint256,t_address)"
      },
      {
        "astId": 591,
        "contract": "contracts/ETHMapZones.sol:ETHMapZones",
        "label": "_operatorApprovals",
        "offset": 0,
        "slot": "5",
        "type": "t_mapping(t_address,t_mapping(t_address,t_bool))"
      },
      {
        "astId": 593,
        "contract": "contracts/ETHMapZones.sol:ETHMapZones",
        "label": "_name",
        "offset": 0,
        "slot": "6",
        "type": "t_string_storage"
      },
      {
        "astId": 595,
        "contract": "contracts/ETHMapZones.sol:ETHMapZones",
        "label": "_symbol",
        "offset": 0,
        "slot": "7",
        "type": "t_string_storage"
      },
      {
        "astId": 599,
        "contract": "contracts/ETHMapZones.sol:ETHMapZones",
        "label": "_tokenURIs",
        "offset": 0,
        "slot": "8",
        "type": "t_mapping(t_uint256,t_string_storage)"
      },
      {
        "astId": 601,
        "contract": "contracts/ETHMapZones.sol:ETHMapZones",
        "label": "_baseURI",
        "offset": 0,
        "slot": "9",
        "type": "t_string_storage"
      },
      {
        "astId": 7,
        "contract": "contracts/ETHMapZones.sol:ETHMapZones",
        "label": "_owner",
        "offset": 0,
        "slot": "10",
        "type": "t_address"
      },
      {
        "astId": 3150,
        "contract": "contracts/ETHMapZones.sol:ETHMapZones",
        "label": "pendingZoneOwners",
        "offset": 0,
        "slot": "11",
        "type": "t_mapping(t_uint256,t_address)"
      }
    ],
    "types": {
      "t_address": {
        "encoding": "inplace",
        "label": "address",
        "numberOfBytes": "20"
      },
      "t_array(t_bytes32)dyn_storage": {
        "base": "t_bytes32",
        "encoding": "dynamic_array",
        "label": "bytes32[]",
        "numberOfBytes": "32"
      },
      "t_array(t_struct(MapEntry)1996_storage)dyn_storage": {
        "base": "t_struct(MapEntry)1996_storage",
        "encoding": "dynamic_array",
        "label": "struct EnumerableMap.MapEntry[]",
        "numberOfBytes": "32"
      },
      "t_bool": {
        "encoding": "inplace",
        "label": "bool",
        "numberOfBytes": "1"
      },
      "t_bytes32": {
        "encoding": "inplace",
        "label": "bytes32",
        "numberOfBytes": "32"
      },
      "t_bytes4": {
        "encoding": "inplace",
        "label": "bytes4",
        "numberOfBytes": "4"
      },
      "t_mapping(t_address,t_bool)": {
        "encoding": "mapping",
        "key": "t_address",
        "label": "mapping(address => bool)",
        "numberOfBytes": "32",
        "value": "t_bool"
      },
      "t_mapping(t_address,t_mapping(t_address,t_bool))": {
        "encoding": "mapping",
        "key": "t_address",
        "label": "mapping(address => mapping(address => bool))",
        "numberOfBytes": "32",
        "value": "t_mapping(t_address,t_bool)"
      },
      "t_mapping(t_address,t_struct(UintSet)2945_storage)": {
        "encoding": "mapping",
        "key": "t_address",
        "label": "mapping(address => struct EnumerableSet.UintSet)",
        "numberOfBytes": "32",
        "value": "t_struct(UintSet)2945_storage"
      },
      "t_mapping(t_bytes32,t_uint256)": {
        "encoding": "mapping",
        "key": "t_bytes32",
        "label": "mapping(bytes32 => uint256)",
        "numberOfBytes": "32",
        "value": "t_uint256"
      },
      "t_mapping(t_bytes4,t_bool)": {
        "encoding": "mapping",
        "key": "t_bytes4",
        "label": "mapping(bytes4 => bool)",
        "numberOfBytes": "32",
        "value": "t_bool"
      },
      "t_mapping(t_uint256,t_address)": {
        "encoding": "mapping",
        "key": "t_uint256",
        "label": "mapping(uint256 => address)",
        "numberOfBytes": "32",
        "value": "t_address"
      },
      "t_mapping(t_uint256,t_string_storage)": {
        "encoding": "mapping",
        "key": "t_uint256",
        "label": "mapping(uint256 => string)",
        "numberOfBytes": "32",
        "value": "t_string_storage"
      },
      "t_string_storage": {
        "encoding": "bytes",
        "label": "string",
        "numberOfBytes": "32"
      },
      "t_struct(Map)2004_storage": {
        "encoding": "inplace",
        "label": "struct EnumerableMap.Map",
        "members": [
          {
            "astId": 1999,
            "contract": "contracts/ETHMapZones.sol:ETHMapZones",
            "label": "_entries",
            "offset": 0,
            "slot": "0",
            "type": "t_array(t_struct(MapEntry)1996_storage)dyn_storage"
          },
          {
            "astId": 2003,
            "contract": "contracts/ETHMapZones.sol:ETHMapZones",
            "label": "_indexes",
            "offset": 0,
            "slot": "1",
            "type": "t_mapping(t_bytes32,t_uint256)"
          }
        ],
        "numberOfBytes": "64"
      },
      "t_struct(MapEntry)1996_storage": {
        "encoding": "inplace",
        "label": "struct EnumerableMap.MapEntry",
        "members": [
          {
            "astId": 1993,
            "contract": "contracts/ETHMapZones.sol:ETHMapZones",
            "label": "_key",
            "offset": 0,
            "slot": "0",
            "type": "t_bytes32"
          },
          {
            "astId": 1995,
            "contract": "contracts/ETHMapZones.sol:ETHMapZones",
            "label": "_value",
            "offset": 0,
            "slot": "1",
            "type": "t_bytes32"
          }
        ],
        "numberOfBytes": "64"
      },
      "t_struct(Set)2559_storage": {
        "encoding": "inplace",
        "label": "struct EnumerableSet.Set",
        "members": [
          {
            "astId": 2554,
            "contract": "contracts/ETHMapZones.sol:ETHMapZones",
            "label": "_values",
            "offset": 0,
            "slot": "0",
            "type": "t_array(t_bytes32)dyn_storage"
          },
          {
            "astId": 2558,
            "contract": "contracts/ETHMapZones.sol:ETHMapZones",
            "label": "_indexes",
            "offset": 0,
            "slot": "1",
            "type": "t_mapping(t_bytes32,t_uint256)"
          }
        ],
        "numberOfBytes": "64"
      },
      "t_struct(UintSet)2945_storage": {
        "encoding": "inplace",
        "label": "struct EnumerableSet.UintSet",
        "members": [
          {
            "astId": 2944,
            "contract": "contracts/ETHMapZones.sol:ETHMapZones",
            "label": "_inner",
            "offset": 0,
            "slot": "0",
            "type": "t_struct(Set)2559_storage"
          }
        ],
        "numberOfBytes": "64"
      },
      "t_struct(UintToAddressMap)2322_storage": {
        "encoding": "inplace",
        "label": "struct EnumerableMap.UintToAddressMap",
        "members": [
          {
            "astId": 2321,
            "contract": "contracts/ETHMapZones.sol:ETHMapZones",
            "label": "_inner",
            "offset": 0,
            "slot": "0",
            "type": "t_struct(Map)2004_storage"
          }
        ],
        "numberOfBytes": "64"
      },
      "t_uint256": {
        "encoding": "inplace",
        "label": "uint256",
        "numberOfBytes": "32"
      }
    }
  }
}