{
  "address": "0x7372D7fB769470ff57019404cbf6bC6515E39090",
  "abi": [
    {
      "inputs": [
        {
          "internalType": "address",
          "name": "_oldContract",
          "type": "address"
        }
      ],
      "stateMutability": "nonpayable",
      "type": "constructor"
    },
    {
      "anonymous": false,
      "inputs": [
        {
          "indexed": true,
          "internalType": "address",
          "name": "owner",
          "type": "address"
        },
        {
          "indexed": true,
          "internalType": "address",
          "name": "approved",
          "type": "address"
        },
        {
          "indexed": true,
          "internalType": "uint256",
          "name": "tokenId",
          "type": "uint256"
        }
      ],
      "name": "Approval",
      "type": "event"
    },
    {
      "anonymous": false,
      "inputs": [
        {
          "indexed": true,
          "internalType": "address",
          "name": "owner",
          "type": "address"
        },
        {
          "indexed": true,
          "internalType": "address",
          "name": "operator",
          "type": "address"
        },
        {
          "indexed": false,
          "internalType": "bool",
          "name": "approved",
          "type": "bool"
        }
      ],
      "name": "ApprovalForAll",
      "type": "event"
    },
    {
      "anonymous": false,
      "inputs": [
        {
          "indexed": true,
          "internalType": "address",
          "name": "previousOwner",
          "type": "address"
        },
        {
          "indexed": true,
          "internalType": "address",
          "name": "newOwner",
          "type": "address"
        }
      ],
      "name": "OwnershipTransferred",
      "type": "event"
    },
    {
      "anonymous": false,
      "inputs": [
        {
          "indexed": true,
          "internalType": "address",
          "name": "from",
          "type": "address"
        },
        {
          "indexed": true,
          "internalType": "address",
          "name": "to",
          "type": "address"
        },
        {
          "indexed": true,
          "internalType": "uint256",
          "name": "tokenId",
          "type": "uint256"
        }
      ],
      "name": "Transfer",
      "type": "event"
    },
    {
      "inputs": [
        {
          "internalType": "address",
          "name": "to",
          "type": "address"
        },
        {
          "internalType": "uint256",
          "name": "tokenId",
          "type": "uint256"
        }
      ],
      "name": "approve",
      "outputs": [],
      "stateMutability": "nonpayable",
      "type": "function"
    },
    {
      "inputs": [
        {
          "internalType": "address",
          "name": "owner",
          "type": "address"
        }
      ],
      "name": "balanceOf",
      "outputs": [
        {
          "internalType": "uint256",
          "name": "",
          "type": "uint256"
        }
      ],
      "stateMutability": "view",
      "type": "function"
    },
    {
      "inputs": [],
      "name": "baseTokenURI",
      "outputs": [
        {
          "internalType": "string",
          "name": "",
          "type": "string"
        }
      ],
      "stateMutability": "view",
      "type": "function"
    },
    {
      "inputs": [],
      "name": "baseURI",
      "outputs": [
        {
          "internalType": "string",
          "name": "",
          "type": "string"
        }
      ],
      "stateMutability": "view",
      "type": "function"
    },
    {
      "inputs": [
        {
          "internalType": "uint256",
          "name": "id",
          "type": "uint256"
        }
      ],
      "name": "canWrapZone",
      "outputs": [
        {
          "internalType": "bool",
          "name": "",
          "type": "bool"
        }
      ],
      "stateMutability": "view",
      "type": "function"
    },
    {
      "inputs": [
        {
          "internalType": "uint256",
          "name": "zoneId",
          "type": "uint256"
        }
      ],
      "name": "claimUnpreparedZone",
      "outputs": [],
      "stateMutability": "nonpayable",
      "type": "function"
    },
    {
      "inputs": [
        {
          "internalType": "uint256",
          "name": "tokenId",
          "type": "uint256"
        }
      ],
      "name": "getApproved",
      "outputs": [
        {
          "internalType": "address",
          "name": "",
          "type": "address"
        }
      ],
      "stateMutability": "view",
      "type": "function"
    },
    {
      "inputs": [
        {
          "internalType": "address",
          "name": "owner",
          "type": "address"
        },
        {
          "internalType": "address",
          "name": "operator",
          "type": "address"
        }
      ],
      "name": "isApprovedForAll",
      "outputs": [
        {
          "internalType": "bool",
          "name": "",
          "type": "bool"
        }
      ],
      "stateMutability": "view",
      "type": "function"
    },
    {
      "inputs": [],
      "name": "map",
      "outputs": [
        {
          "internalType": "contract IEthMap",
          "name": "",
          "type": "address"
        }
      ],
      "stateMutability": "view",
      "type": "function"
    },
    {
      "inputs": [
        {
          "internalType": "uint256",
          "name": "zoneId",
          "type": "uint256"
        }
      ],
      "name": "migrate",
      "outputs": [],
      "stateMutability": "nonpayable",
      "type": "function"
    },
    {
      "inputs": [],
      "name": "name",
      "outputs": [
        {
          "internalType": "string",
          "name": "",
          "type": "string"
        }
      ],
      "stateMutability": "view",
      "type": "function"
    },
    {
      "inputs": [],
      "name": "oldContract",
      "outputs": [
        {
          "internalType": "address",
          "name": "",
          "type": "address"
        }
      ],
      "stateMutability": "view",
      "type": "function"
    },
    {
      "inputs": [],
      "name": "owner",
      "outputs": [
        {
          "internalType": "address",
          "name": "",
          "type": "address"
        }
      ],
      "stateMutability": "view",
      "type": "function"
    },
    {
      "inputs": [
        {
          "internalType": "uint256",
          "name": "tokenId",
          "type": "uint256"
        }
      ],
      "name": "ownerOf",
      "outputs": [
        {
          "internalType": "address",
          "name": "",
          "type": "address"
        }
      ],
      "stateMutability": "view",
      "type": "function"
    },
    {
      "inputs": [
        {
          "internalType": "uint256",
          "name": "",
          "type": "uint256"
        }
      ],
      "name": "pendingZoneOwners",
      "outputs": [
        {
          "internalType": "address",
          "name": "",
          "type": "address"
        }
      ],
      "stateMutability": "view",
      "type": "function"
    },
    {
      "inputs": [
        {
          "internalType": "uint256",
          "name": "zoneId",
          "type": "uint256"
        }
      ],
      "name": "prepareToWrapZone",
      "outputs": [],
      "stateMutability": "nonpayable",
      "type": "function"
    },
    {
      "inputs": [],
      "name": "proxyRegistryAddress",
      "outputs": [
        {
          "internalType": "address",
          "name": "",
          "type": "address"
        }
      ],
      "stateMutability": "view",
      "type": "function"
    },
    {
      "inputs": [],
      "name": "renounceOwnership",
      "outputs": [],
      "stateMutability": "nonpayable",
      "type": "function"
    },
    {
      "inputs": [
        {
          "internalType": "address",
          "name": "from",
          "type": "address"
        },
        {
          "internalType": "address",
          "name": "to",
          "type": "address"
        },
        {
          "internalType": "uint256",
          "name": "tokenId",
          "type": "uint256"
        }
      ],
      "name": "safeTransferFrom",
      "outputs": [],
      "stateMutability": "nonpayable",
      "type": "function"
    },
    {
      "inputs": [
        {
          "internalType": "address",
          "name": "from",
          "type": "address"
        },
        {
          "internalType": "address",
          "name": "to",
          "type": "address"
        },
        {
          "internalType": "uint256",
          "name": "tokenId",
          "type": "uint256"
        },
        {
          "internalType": "bytes",
          "name": "_data",
          "type": "bytes"
        }
      ],
      "name": "safeTransferFrom",
      "outputs": [],
      "stateMutability": "nonpayable",
      "type": "function"
    },
    {
      "inputs": [
        {
          "internalType": "address",
          "name": "operator",
          "type": "address"
        },
        {
          "internalType": "bool",
          "name": "approved",
          "type": "bool"
        }
      ],
      "name": "setApprovalForAll",
      "outputs": [],
      "stateMutability": "nonpayable",
      "type": "function"
    },
    {
      "inputs": [
        {
          "internalType": "string",
          "name": "_baseURI",
          "type": "string"
        }
      ],
      "name": "setBaseURI",
      "outputs": [],
      "stateMutability": "nonpayable",
      "type": "function"
    },
    {
      "inputs": [
        {
          "internalType": "bytes4",
          "name": "interfaceId",
          "type": "bytes4"
        }
      ],
      "name": "supportsInterface",
      "outputs": [
        {
          "internalType": "bool",
          "name": "",
          "type": "bool"
        }
      ],
      "stateMutability": "view",
      "type": "function"
    },
    {
      "inputs": [],
      "name": "symbol",
      "outputs": [
        {
          "internalType": "string",
          "name": "",
          "type": "string"
        }
      ],
      "stateMutability": "view",
      "type": "function"
    },
    {
      "inputs": [
        {
          "internalType": "uint256",
          "name": "index",
          "type": "uint256"
        }
      ],
      "name": "tokenByIndex",
      "outputs": [
        {
          "internalType": "uint256",
          "name": "",
          "type": "uint256"
        }
      ],
      "stateMutability": "view",
      "type": "function"
    },
    {
      "inputs": [
        {
          "internalType": "address",
          "name": "owner",
          "type": "address"
        },
        {
          "internalType": "uint256",
          "name": "index",
          "type": "uint256"
        }
      ],
      "name": "tokenOfOwnerByIndex",
      "outputs": [
        {
          "internalType": "uint256",
          "name": "",
          "type": "uint256"
        }
      ],
      "stateMutability": "view",
      "type": "function"
    },
    {
      "inputs": [
        {
          "internalType": "uint256",
          "name": "_tokenId",
          "type": "uint256"
        }
      ],
      "name": "tokenURI",
      "outputs": [
        {
          "internalType": "string",
          "name": "",
          "type": "string"
        }
      ],
      "stateMutability": "view",
      "type": "function"
    },
    {
      "inputs": [],
      "name": "totalSupply",
      "outputs": [
        {
          "internalType": "uint256",
          "name": "",
          "type": "uint256"
        }
      ],
      "stateMutability": "view",
      "type": "function"
    },
    {
      "inputs": [
        {
          "internalType": "address",
          "name": "from",
          "type": "address"
        },
        {
          "internalType": "address",
          "name": "to",
          "type": "address"
        },
        {
          "internalType": "uint256",
          "name": "tokenId",
          "type": "uint256"
        }
      ],
      "name": "transferFrom",
      "outputs": [],
      "stateMutability": "nonpayable",
      "type": "function"
    },
    {
      "inputs": [
        {
          "internalType": "address",
          "name": "newOwner",
          "type": "address"
        }
      ],
      "name": "transferOwnership",
      "outputs": [],
      "stateMutability": "nonpayable",
      "type": "function"
    },
    {
      "inputs": [
        {
          "internalType": "uint256",
          "name": "zoneId",
          "type": "uint256"
        }
      ],
      "name": "unwrapZone",
      "outputs": [],
      "stateMutability": "nonpayable",
      "type": "function"
    },
    {
      "inputs": [
        {
          "internalType": "uint256",
          "name": "zoneId",
          "type": "uint256"
        }
      ],
      "name": "wrapZone",
      "outputs": [],
      "stateMutability": "nonpayable",
      "type": "function"
    }
  ],
  "transactionHash": "0x6d7b1ff45bea1e5241bd5dc2b264a3300559fbcf27b7b25caeabfa6e4ee0be0e",
  "args": [
    "0x91710D0EDb30FB08088405d424Ec3cb1515db313"
  ],
  "solcInputHash": "72128c36f006cfd4ea959896928ea62e",
  "bytecode": "0x60a06040523480156200001157600080fd5b5060405162002c9d38038062002c9d833981810160405260208110156200003757600080fd5b5051604080518082018252600c81526b4554484d6170205a6f6e657360a01b602082810191909152825180840190935260058352645a4f4e455360d81b908301529081816200008d6301ffc9a760e01b620001a8565b8151620000a29060069060208501906200024a565b508051620000b89060079060208401906200024a565b50620000cb6380ac58cd60e01b620001a8565b620000dd635b5e139f60e01b620001a8565b620000ef63780e9d6360e01b620001a8565b505050506000620001056200022d60201b60201c565b600a80546001600160a01b0319166001600160a01b038316908117909155604051919250906000907f8be0079c531659141344cd1fd0a4f28419497f9722a3daafe3b4186f6b6457e0908290a35060408051808201909152601581527f68747470733a2f2f6574686d61702e776f726c642f00000000000000000000006020820152620001929062000231565b60601b6001600160601b031916608052620002f6565b6001600160e01b0319808216141562000208576040805162461bcd60e51b815260206004820152601c60248201527f4552433136353a20696e76616c696420696e7465726661636520696400000000604482015290519081900360640190fd5b6001600160e01b0319166000908152602081905260409020805460ff19166001179055565b3390565b8051620002469060099060208401906200024a565b5050565b828054600181600116156101000203166002900490600052602060002090601f016020900481019282620002825760008555620002cd565b82601f106200029d57805160ff1916838001178555620002cd565b82800160010185558215620002cd579182015b82811115620002cd578251825591602001919060010190620002b0565b50620002db929150620002df565b5090565b5b80821115620002db5760008155600101620002e0565b60805160601c61297f6200031e60003980610b185280610b825280610be3525061297f6000f3fe608060405234801561001057600080fd5b50600436106101f05760003560e01c80636352211e1161010f578063a22cb465116100a2578063cd7c032611610071578063cd7c0326146106d8578063d547cfb7146106e0578063e985e9c5146106e8578063f2fde38b14610716576101f0565b8063a22cb465146105bf578063b88d4fde146105ed578063c7581184146106b3578063c87b56dd146106bb576101f0565b8063715018a6116100de578063715018a61461058a5780637774ce08146105925780638da5cb5b146105af57806395d89b41146105b7576101f0565b80636352211e146105225780636ac3fbc31461053f5780636c0360eb1461055c57806370a0823114610564576101f0565b80632f745c59116101875780634f6ccce7116101565780634f6ccce7146104255780635164dd4a1461044257806355f804b31461045f5780635cd0ff4114610505576101f0565b80632f745c591461039e57806330503c4e146103ca57806342842e0e146103d2578063454b060814610408576101f0565b8063095ea7b3116101c3578063095ea7b314610305578063172e56ed1461033157806318160ddd1461034e57806323b872dd14610368576101f0565b806301ffc9a7146101f557806302bd4ee11461023057806306fdde031461024f578063081812fc146102cc575b600080fd5b61021c6004803603602081101561020b57600080fd5b50356001600160e01b03191661073c565b604080519115158252519081900360200190f35b61024d6004803603602081101561024657600080fd5b503561075f565b005b61025761084c565b6040805160208082528351818301528351919283929083019185019080838360005b83811015610291578181015183820152602001610279565b50505050905090810190601f1680156102be5780820380516001836020036101000a031916815260200191505b509250505060405180910390f35b6102e9600480360360208110156102e257600080fd5b50356108e2565b604080516001600160a01b039092168252519081900360200190f35b61024d6004803603604081101561031b57600080fd5b506001600160a01b038135169060200135610944565b61024d6004803603602081101561034757600080fd5b5035610a1a565b610356610a89565b60408051918252519081900360200190f35b61024d6004803603606081101561037e57600080fd5b506001600160a01b03813581169160208101359091169060400135610a9a565b610356600480360360408110156103b457600080fd5b506001600160a01b038135169060200135610aeb565b6102e9610b16565b61024d600480360360608110156103e857600080fd5b506001600160a01b03813581169160208101359091169060400135610b3a565b61024d6004803603602081101561041e57600080fd5b5035610b55565b6103566004803603602081101561043b57600080fd5b5035610c6b565b61024d6004803603602081101561045857600080fd5b5035610c81565b61024d6004803603602081101561047557600080fd5b81019060208101813564010000000081111561049057600080fd5b8201836020820111156104a257600080fd5b803590602001918460018302840111640100000000831117156104c457600080fd5b91908080601f016020809104026020016040519081016040528093929190818152602001838380828437600092019190915250929550610de7945050505050565b6102e96004803603602081101561051b57600080fd5b5035610e64565b6102e96004803603602081101561053857600080fd5b5035610e7f565b61024d6004803603602081101561055557600080fd5b5035610ea7565b610257610f05565b6103566004803603602081101561057a57600080fd5b50356001600160a01b0316610f66565b61024d610fce565b61021c600480360360208110156105a857600080fd5b503561108c565b6102e96110c7565b6102576110d6565b61024d600480360360408110156105d557600080fd5b506001600160a01b0381351690602001351515611137565b61024d6004803603608081101561060357600080fd5b6001600160a01b0382358116926020810135909116916040820135919081019060808101606082013564010000000081111561063e57600080fd5b82018360208201111561065057600080fd5b8035906020019184600183028401116401000000008311171561067257600080fd5b91908080601f01602080910402602001604051908101604052809392919081815260200183838082843760009201919091525092955061123c945050505050565b6102e961129a565b610257600480360360208110156106d157600080fd5b50356112b2565b6102e961137b565b610257611393565b61021c600480360360408110156106fe57600080fd5b506001600160a01b038135811691602001351661139d565b61024d6004803603602081101561072c57600080fd5b50356001600160a01b0316611465565b6001600160e01b0319811660009081526020819052604090205460ff165b919050565b61077061076a61157a565b8261157e565b6107ab5760405162461bcd60e51b815260040180806020018281038252602e81526020018061284e602e913960400191505060405180910390fd5b6107b48161161a565b73b6bbf89c3dbba20cb4d5cabaa4a386acbbab455e6388806b37826107d761157a565b6040518363ffffffff1660e01b815260040180838152602001826001600160a01b0316815260200192505050602060405180830381600087803b15801561081d57600080fd5b505af1158015610831573d6000803e3d6000fd5b505050506040513d602081101561084757600080fd5b505050565b60068054604080516020601f60026000196101006001881615020190951694909404938401819004810282018101909252828152606093909290918301828280156108d85780601f106108ad576101008083540402835291602001916108d8565b820191906000526020600020905b8154815290600101906020018083116108bb57829003601f168201915b5050505050905090565b60006108ed826116e7565b6109285760405162461bcd60e51b815260040180806020018281038252602c81526020018061287c602c913960400191505060405180910390fd5b506000908152600460205260409020546001600160a01b031690565b600061094f82610e7f565b9050806001600160a01b0316836001600160a01b031614156109a25760405162461bcd60e51b81526004018080602001828103825260218152602001806128d16021913960400191505060405180910390fd5b806001600160a01b03166109b461157a565b6001600160a01b031614806109d557506109d5816109d061157a565b6116f4565b610a105760405162461bcd60e51b81526004018080602001828103825260388152602001806127a16038913960400191505060405180910390fd5b6108478383611722565b33610a2482611790565b6001600160a01b031614610a695760405162461bcd60e51b815260040180806020018281038252602681526020018061277b6026913960400191505060405180910390fd5b6000908152600b6020526040902080546001600160a01b03191633179055565b6000610a95600261181f565b905090565b610aa561076a61157a565b610ae05760405162461bcd60e51b81526004018080602001828103825260318152602001806129166031913960400191505060405180910390fd5b61084783838361182a565b6001600160a01b0382166000908152600160205260408120610b0d9083611976565b90505b92915050565b7f000000000000000000000000000000000000000000000000000000000000000081565b6108478383836040518060200160405280600081525061123c565b604080516323b872dd60e01b81523360048201523060248201526044810183905290516001600160a01b037f000000000000000000000000000000000000000000000000000000000000000016916323b872dd91606480830192600092919082900301818387803b158015610bc957600080fd5b505af1158015610bdd573d6000803e3d6000fd5b505050507f00000000000000000000000000000000000000000000000000000000000000006001600160a01b03166302bd4ee1826040518263ffffffff1660e01b815260040180828152602001915050600060405180830381600087803b158015610c4757600080fd5b505af1158015610c5b573d6000803e3d6000fd5b50505050610c6881611982565b50565b600080610c79600284611b1b565b509392505050565b610c8961157a565b6001600160a01b0316610c9a6110c7565b6001600160a01b031614610cf5576040805162461bcd60e51b815260206004820181905260248201527f4f776e61626c653a2063616c6c6572206973206e6f7420746865206f776e6572604482015290519081900360640190fd5b6000818152600b60205260409020546001600160a01b031615610d495760405162461bcd60e51b81526004018080602001828103825260248152602001806128f26024913960400191505060405180910390fd5b610d52816116e7565b15610d8e5760405162461bcd60e51b81526004018080602001828103825260228152602001806126896022913960400191505060405180910390fd5b30610d9882611790565b6001600160a01b031614610ddd5760405162461bcd60e51b815260040180806020018281038252602c815260200180612947602c913960400191505060405180910390fd5b610c683382611b37565b610def61157a565b6001600160a01b0316610e006110c7565b6001600160a01b031614610e5b576040805162461bcd60e51b815260206004820181905260248201527f4f776e61626c653a2063616c6c6572206973206e6f7420746865206f776e6572604482015290519081900360640190fd5b610c6881611c65565b600b602052600090815260409020546001600160a01b031681565b6000610b10826040518060600160405280602981526020016128036029913960029190611c7c565b6000818152600b60205260409020546001600160a01b03163314610efc5760405162461bcd60e51b81526004018080602001828103825260288152602001806127036028913960400191505060405180910390fd5b610c6881611982565b60098054604080516020601f60026000196101006001881615020190951694909404938401819004810282018101909252828152606093909290918301828280156108d85780601f106108ad576101008083540402835291602001916108d8565b60006001600160a01b038216610fad5760405162461bcd60e51b815260040180806020018281038252602a8152602001806127d9602a913960400191505060405180910390fd5b6001600160a01b0382166000908152600160205260409020610b109061181f565b610fd661157a565b6001600160a01b0316610fe76110c7565b6001600160a01b031614611042576040805162461bcd60e51b815260206004820181905260248201527f4f776e61626c653a2063616c6c6572206973206e6f7420746865206f776e6572604482015290519081900360640190fd5b600a546040516000916001600160a01b0316907f8be0079c531659141344cd1fd0a4f28419497f9722a3daafe3b4186f6b6457e0908390a3600a80546001600160a01b0319169055565b6000818152600b60205260408120546001600160a01b031633148015610b105750306110b783611790565b6001600160a01b03161492915050565b600a546001600160a01b031690565b60078054604080516020601f60026000196101006001881615020190951694909404938401819004810282018101909252828152606093909290918301828280156108d85780601f106108ad576101008083540402835291602001916108d8565b61113f61157a565b6001600160a01b0316826001600160a01b031614156111a5576040805162461bcd60e51b815260206004820152601960248201527f4552433732313a20617070726f766520746f2063616c6c657200000000000000604482015290519081900360640190fd5b80600560006111b261157a565b6001600160a01b03908116825260208083019390935260409182016000908120918716808252919093529120805460ff1916921515929092179091556111f661157a565b6001600160a01b03167f17307eab39ab6107e8899845ad3d59bd9653f200f220920489ca2b5937696c318360405180821515815260200191505060405180910390a35050565b61124d61124761157a565b8361157e565b6112885760405162461bcd60e51b81526004018080602001828103825260318152602001806129166031913960400191505060405180910390fd5b61129484848484611c93565b50505050565b73b6bbf89c3dbba20cb4d5cabaa4a386acbbab455e81565b60606112bc611393565b6112c583611ce5565b6040516020018083805190602001908083835b602083106112f75780518252601f1990920191602091820191016112d8565b51815160209384036101000a600019018019909216911617905285519190930192850191508083835b6020831061133f5780518252601f199092019160209182019101611320565b6001836020036101000a038019825116818451168082178552505050505050905001925050506040516020818303038152906040529050919050565b73a5409ec958c83c3f309868babaca7c86dcb077c181565b6060610a95610f05565b60008073a5409ec958c83c3f309868babaca7c86dcb077c19050826001600160a01b0316816001600160a01b031663c4552791866040518263ffffffff1660e01b815260040180826001600160a01b0316815260200191505060206040518083038186803b15801561140e57600080fd5b505afa158015611422573d6000803e3d6000fd5b505050506040513d602081101561143857600080fd5b50516001600160a01b03161415611453576001915050610b10565b61145d84846116f4565b949350505050565b61146d61157a565b6001600160a01b031661147e6110c7565b6001600160a01b0316146114d9576040805162461bcd60e51b815260206004820181905260248201527f4f776e61626c653a2063616c6c6572206973206e6f7420746865206f776e6572604482015290519081900360640190fd5b6001600160a01b03811661151e5760405162461bcd60e51b81526004018080602001828103825260268152602001806126dd6026913960400191505060405180910390fd5b600a546040516001600160a01b038084169216907f8be0079c531659141344cd1fd0a4f28419497f9722a3daafe3b4186f6b6457e090600090a3600a80546001600160a01b0319166001600160a01b0392909216919091179055565b3390565b6000611589826116e7565b6115c45760405162461bcd60e51b815260040180806020018281038252602c81526020018061274f602c913960400191505060405180910390fd5b60006115cf83610e7f565b9050806001600160a01b0316846001600160a01b0316148061160a5750836001600160a01b03166115ff846108e2565b6001600160a01b0316145b8061145d575061145d81856116f4565b600061162582610e7f565b905061163381600084610847565b61163e600083611722565b600082815260086020526040902054600260001961010060018416150201909116041561167c57600082815260086020526040812061167c91612581565b6001600160a01b038116600090815260016020526040902061169e9083611dd8565b506116aa600283611de4565b5060405182906000906001600160a01b038416907fddf252ad1be2c89b69c2b068fc378daa952ba7f163c4a11628f55a4df523b3ef908390a45050565b6000610b10600283611df0565b6001600160a01b03918216600090815260056020908152604080832093909416825291909152205460ff1690565b600081815260046020526040902080546001600160a01b0319166001600160a01b038416908117909155819061175782610e7f565b6001600160a01b03167f8c5be1e5ebec7d5bd14f71427d1e84f3dd0314c0f7b2291e5b200ac8c7c3b92560405160405180910390a45050565b600073b6bbf89c3dbba20cb4d5cabaa4a386acbbab455e6001600160a01b03166311ee0ec5836040518263ffffffff1660e01b81526004018082815260200191505060606040518083038186803b1580156117ea57600080fd5b505afa1580156117fe573d6000803e3d6000fd5b505050506040513d606081101561181457600080fd5b506020015192915050565b6000610b1082611dfc565b826001600160a01b031661183d82610e7f565b6001600160a01b0316146118825760405162461bcd60e51b81526004018080602001828103825260298152602001806128a86029913960400191505060405180910390fd5b6001600160a01b0382166118c75760405162461bcd60e51b815260040180806020018281038252602481526020018061272b6024913960400191505060405180910390fd5b6118d2838383610847565b6118dd600082611722565b6001600160a01b03831660009081526001602052604090206118ff9082611dd8565b506001600160a01b03821660009081526001602052604090206119229082611e00565b5061192f60028284611e0c565b5080826001600160a01b0316846001600160a01b03167fddf252ad1be2c89b69c2b068fc378daa952ba7f163c4a11628f55a4df523b3ef60405160405180910390a4505050565b6000610b0d8383611e22565b60008073b6bbf89c3dbba20cb4d5cabaa4a386acbbab455e6001600160a01b03166311ee0ec5846040518263ffffffff1660e01b81526004018082815260200191505060606040518083038186803b1580156119dd57600080fd5b505afa1580156119f1573d6000803e3d6000fd5b505050506040513d6060811015611a0757600080fd5b50602081015160409091015190925090506001600160a01b0382163014611a5f5760405162461bcd60e51b815260040180806020018281038252602c815260200180612947602c913960400191505060405180910390fd5b6000838152600b6020526040902080546001600160a01b03191690558015611b115773b6bbf89c3dbba20cb4d5cabaa4a386acbbab455e6001600160a01b031663159d3c248460006040518363ffffffff1660e01b81526004018083815260200182815260200192505050602060405180830381600087803b158015611ae457600080fd5b505af1158015611af8573d6000803e3d6000fd5b505050506040513d6020811015611b0e57600080fd5b50505b6108473384611b37565b6000808080611b2a8686611e86565b9097909650945050505050565b6001600160a01b038216611b92576040805162461bcd60e51b815260206004820181905260248201527f4552433732313a206d696e7420746f20746865207a65726f2061646472657373604482015290519081900360640190fd5b611b9b816116e7565b15611bed576040805162461bcd60e51b815260206004820152601c60248201527f4552433732313a20746f6b656e20616c7265616479206d696e74656400000000604482015290519081900360640190fd5b611bf960008383610847565b6001600160a01b0382166000908152600160205260409020611c1b9082611e00565b50611c2860028284611e0c565b5060405181906001600160a01b038416906000907fddf252ad1be2c89b69c2b068fc378daa952ba7f163c4a11628f55a4df523b3ef908290a45050565b8051611c789060099060208401906125c5565b5050565b6000611c89848484611f01565b90505b9392505050565b611c9e84848461182a565b611caa84848484611fcb565b6112945760405162461bcd60e51b81526004018080602001828103825260328152602001806126ab6032913960400191505060405180910390fd5b606081611d0a57506040805180820190915260018152600360fc1b602082015261075a565b8160005b8115611d2257600101600a82049150611d0e565b60008167ffffffffffffffff81118015611d3b57600080fd5b506040519080825280601f01601f191660200182016040528015611d66576020820181803683370190505b50859350905060001982015b8315611dcf57600a840660300160f81b82828060019003935081518110611d9557fe5b60200101907effffffffffffffffffffffffffffffffffffffffffffffffffffffffffffff1916908160001a905350600a84049350611d72565b50949350505050565b6000610b0d838361215d565b6000610b0d8383612223565b6000610b0d83836122f7565b5490565b6000610b0d838361230f565b6000611c8984846001600160a01b038516612359565b81546000908210611e645760405162461bcd60e51b81526004018080602001828103825260228152602001806126676022913960400191505060405180910390fd5b826000018281548110611e7357fe5b9060005260206000200154905092915050565b815460009081908310611eca5760405162461bcd60e51b815260040180806020018281038252602281526020018061282c6022913960400191505060405180910390fd5b6000846000018481548110611edb57fe5b906000526020600020906002020190508060000154816001015492509250509250929050565b60008281526001840160205260408120548281611f9c5760405162461bcd60e51b81526004018080602001828103825283818151815260200191508051906020019080838360005b83811015611f61578181015183820152602001611f49565b50505050905090810190601f168015611f8e5780820380516001836020036101000a031916815260200191505b509250505060405180910390fd5b50846000016001820381548110611faf57fe5b9060005260206000209060020201600101549150509392505050565b6000611fdf846001600160a01b03166123f0565b611feb5750600161145d565b6000612123630a85bd0160e11b61200061157a565b88878760405160240180856001600160a01b03168152602001846001600160a01b0316815260200183815260200180602001828103825283818151815260200191508051906020019080838360005b8381101561206757818101518382015260200161204f565b50505050905090810190601f1680156120945780820380516001836020036101000a031916815260200191505b5095505050505050604051602081830303815290604052907bffffffffffffffffffffffffffffffffffffffffffffffffffffffff19166020820180517bffffffffffffffffffffffffffffffffffffffffffffffffffffffff83818316178352505050506040518060600160405280603281526020016126ab603291396001600160a01b03881691906123f6565b9050600081806020019051602081101561213c57600080fd5b50516001600160e01b031916630a85bd0160e11b1492505050949350505050565b60008181526001830160205260408120548015612219578354600019808301919081019060009087908390811061219057fe5b90600052602060002001549050808760000184815481106121ad57fe5b6000918252602080832090910192909255828152600189810190925260409020908401905586548790806121dd57fe5b60019003818190600052602060002001600090559055866001016000878152602001908152602001600020600090556001945050505050610b10565b6000915050610b10565b60008181526001830160205260408120548015612219578354600019808301919081019060009087908390811061225657fe5b906000526020600020906002020190508087600001848154811061227657fe5b6000918252602080832084546002909302019182556001938401549184019190915583548252898301905260409020908401905586548790806122b557fe5b6000828152602080822060026000199094019384020182815560019081018390559290935588815289820190925260408220919091559450610b109350505050565b60009081526001919091016020526040902054151590565b600061231b83836122f7565b61235157508154600181810184556000848152602080822090930184905584548482528286019093526040902091909155610b10565b506000610b10565b6000828152600184016020526040812054806123be575050604080518082018252838152602080820184815286546001818101895560008981528481209551600290930290950191825591519082015586548684528188019092529290912055611c8c565b828560000160018303815481106123d157fe5b9060005260206000209060020201600101819055506000915050611c8c565b3b151590565b6060611c8984846000858561240a856123f0565b61245b576040805162461bcd60e51b815260206004820152601d60248201527f416464726573733a2063616c6c20746f206e6f6e2d636f6e7472616374000000604482015290519081900360640190fd5b600080866001600160a01b031685876040518082805190602001908083835b602083106124995780518252601f19909201916020918201910161247a565b6001836020036101000a03801982511681845116808217855250505050505090500191505060006040518083038185875af1925050503d80600081146124fb576040519150601f19603f3d011682016040523d82523d6000602084013e612500565b606091505b509150915061251082828661251b565b979650505050505050565b6060831561252a575081611c8c565b82511561253a5782518084602001fd5b60405162461bcd60e51b8152602060048201818152845160248401528451859391928392604401919085019080838360008315611f61578181015183820152602001611f49565b50805460018160011615610100020316600290046000825580601f106125a75750610c68565b601f016020900490600052602060002090810190610c689190612651565b828054600181600116156101000203166002900490600052602060002090601f0160209004810192826125fb5760008555612641565b82601f1061261457805160ff1916838001178555612641565b82800160010185558215612641579182015b82811115612641578251825591602001919060010190612626565b5061264d929150612651565b5090565b5b8082111561264d576000815560010161265256fe456e756d657261626c655365743a20696e646578206f7574206f6620626f756e64734554484d61705a6f6e65733a205a6f6e6520616c726561647920777261707065642e4552433732313a207472616e7366657220746f206e6f6e20455243373231526563656976657220696d706c656d656e7465724f776e61626c653a206e6577206f776e657220697320746865207a65726f20616464726573734554484d61705a6f6e65733a205a6f6e65206e6f7420707265706172656420666f7220777261702e4552433732313a207472616e7366657220746f20746865207a65726f20616464726573734552433732313a206f70657261746f7220717565727920666f72206e6f6e6578697374656e7420746f6b656e4554484d61705a6f6e65733a2063616c6c6572206973206e6f74207a6f6e65206f776e65722e4552433732313a20617070726f76652063616c6c6572206973206e6f74206f776e6572206e6f7220617070726f76656420666f7220616c6c4552433732313a2062616c616e636520717565727920666f7220746865207a65726f20616464726573734552433732313a206f776e657220717565727920666f72206e6f6e6578697374656e7420746f6b656e456e756d657261626c654d61703a20696e646578206f7574206f6620626f756e64734554484d61705a6f6e65733a2063616c6c6572206973206e6f74206f776e6572206e6f7220617070726f7665642e4552433732313a20617070726f76656420717565727920666f72206e6f6e6578697374656e7420746f6b656e4552433732313a207472616e73666572206f6620746f6b656e2074686174206973206e6f74206f776e4552433732313a20617070726f76616c20746f2063757272656e74206f776e65724554484d61705a6f6e65733a205a6f6e6520707265706172656420666f7220777261702e4552433732313a207472616e736665722063616c6c6572206973206e6f74206f776e6572206e6f7220617070726f7665644554484d61705a6f6e65733a20436f6e747261637420686173206e6f74207265636569766564207a6f6e652ea164736f6c6343000706000a",
  "devdoc": {
    "kind": "dev",
    "methods": {
      "approve(address,uint256)": {
        "details": "See {IERC721-approve}."
      },
      "balanceOf(address)": {
        "details": "See {IERC721-balanceOf}."
      },
      "baseURI()": {
        "details": "Returns the base URI set via {_setBaseURI}. This will be automatically added as a prefix in {tokenURI} to each token's URI, or to the token ID if no specific URI is set for that token ID."
      },
      "getApproved(uint256)": {
        "details": "See {IERC721-getApproved}."
      },
      "name()": {
        "details": "See {IERC721Metadata-name}."
      },
      "owner()": {
        "details": "Returns the address of the current owner."
      },
      "ownerOf(uint256)": {
        "details": "See {IERC721-ownerOf}."
      },
      "renounceOwnership()": {
        "details": "Leaves the contract without owner. It will not be possible to call `onlyOwner` functions anymore. Can only be called by the current owner. NOTE: Renouncing ownership will leave the contract without an owner, thereby removing any functionality that is only available to the owner."
      },
      "safeTransferFrom(address,address,uint256)": {
        "details": "See {IERC721-safeTransferFrom}."
      },
      "safeTransferFrom(address,address,uint256,bytes)": {
        "details": "See {IERC721-safeTransferFrom}."
      },
      "setApprovalForAll(address,bool)": {
        "details": "See {IERC721-setApprovalForAll}."
      },
      "supportsInterface(bytes4)": {
        "details": "See {IERC165-supportsInterface}. Time complexity O(1), guaranteed to always use less than 30 000 gas."
      },
      "symbol()": {
        "details": "See {IERC721Metadata-symbol}."
      },
      "tokenByIndex(uint256)": {
        "details": "See {IERC721Enumerable-tokenByIndex}."
      },
      "tokenOfOwnerByIndex(address,uint256)": {
        "details": "See {IERC721Enumerable-tokenOfOwnerByIndex}."
      },
      "totalSupply()": {
        "details": "See {IERC721Enumerable-totalSupply}."
      },
      "transferFrom(address,address,uint256)": {
        "details": "See {IERC721-transferFrom}."
      },
      "transferOwnership(address)": {
        "details": "Transfers ownership of the contract to a new account (`newOwner`). Can only be called by the current owner."
      }
    },
    "version": 1
  },
  "userdoc": {
    "kind": "user",
    "methods": {
      "baseTokenURI()": {
        "notice": "==========  Queries  ========== "
      },
      "constructor": {
        "notice": "==========  Constructor  ========== "
      },
      "isApprovedForAll(address,address)": {
        "notice": "Override isApprovedForAll to whitelist user's OpenSea proxy accounts to enable gas-less listings."
      },
      "map()": {
        "notice": "==========  Constants  ========== "
      },
      "pendingZoneOwners(uint256)": {
        "notice": "==========  Storage  ========== "
      }
    },
    "version": 1
  },
  "storageLayout": {
    "storage": [
      {
        "astId": 123,
        "contract": "contracts/ETHMapZones.sol:ETHMapZones",
        "label": "_supportedInterfaces",
        "offset": 0,
        "slot": "0",
        "type": "t_mapping(t_bytes4,t_bool)"
      },
      {
        "astId": 579,
        "contract": "contracts/ETHMapZones.sol:ETHMapZones",
        "label": "_holderTokens",
        "offset": 0,
        "slot": "1",
        "type": "t_mapping(t_address,t_struct(UintSet)2945_storage)"
      },
      {
        "astId": 581,
        "contract": "contracts/ETHMapZones.sol:ETHMapZones",
        "label": "_tokenOwners",
        "offset": 0,
        "slot": "2",
        "type": "t_struct(UintToAddressMap)2322_storage"
      },
      {
        "astId": 585,
        "contract": "contracts/ETHMapZones.sol:ETHMapZones",
        "label": "_tokenApprovals",
        "offset": 0,
        "slot": "4",
        "type": "t_mapping(t_uint256,t_address)"
      },
      {
        "astId": 591,
        "contract": "contracts/ETHMapZones.sol:ETHMapZones",
        "label": "_operatorApprovals",
        "offset": 0,
        "slot": "5",
        "type": "t_mapping(t_address,t_mapping(t_address,t_bool))"
      },
      {
        "astId": 593,
        "contract": "contracts/ETHMapZones.sol:ETHMapZones",
        "label": "_name",
        "offset": 0,
        "slot": "6",
        "type": "t_string_storage"
      },
      {
        "astId": 595,
        "contract": "contracts/ETHMapZones.sol:ETHMapZones",
        "label": "_symbol",
        "offset": 0,
        "slot": "7",
        "type": "t_string_storage"
      },
      {
        "astId": 599,
        "contract": "contracts/ETHMapZones.sol:ETHMapZones",
        "label": "_tokenURIs",
        "offset": 0,
        "slot": "8",
        "type": "t_mapping(t_uint256,t_string_storage)"
      },
      {
        "astId": 601,
        "contract": "contracts/ETHMapZones.sol:ETHMapZones",
        "label": "_baseURI",
        "offset": 0,
        "slot": "9",
        "type": "t_string_storage"
      },
      {
        "astId": 7,
        "contract": "contracts/ETHMapZones.sol:ETHMapZones",
        "label": "_owner",
        "offset": 0,
        "slot": "10",
        "type": "t_address"
      },
      {
        "astId": 3152,
        "contract": "contracts/ETHMapZones.sol:ETHMapZones",
        "label": "pendingZoneOwners",
        "offset": 0,
        "slot": "11",
        "type": "t_mapping(t_uint256,t_address)"
      }
    ],
    "types": {
      "t_address": {
        "encoding": "inplace",
        "label": "address",
        "numberOfBytes": "20"
      },
      "t_array(t_bytes32)dyn_storage": {
        "base": "t_bytes32",
        "encoding": "dynamic_array",
        "label": "bytes32[]",
        "numberOfBytes": "32"
      },
      "t_array(t_struct(MapEntry)1996_storage)dyn_storage": {
        "base": "t_struct(MapEntry)1996_storage",
        "encoding": "dynamic_array",
        "label": "struct EnumerableMap.MapEntry[]",
        "numberOfBytes": "32"
      },
      "t_bool": {
        "encoding": "inplace",
        "label": "bool",
        "numberOfBytes": "1"
      },
      "t_bytes32": {
        "encoding": "inplace",
        "label": "bytes32",
        "numberOfBytes": "32"
      },
      "t_bytes4": {
        "encoding": "inplace",
        "label": "bytes4",
        "numberOfBytes": "4"
      },
      "t_mapping(t_address,t_bool)": {
        "encoding": "mapping",
        "key": "t_address",
        "label": "mapping(address => bool)",
        "numberOfBytes": "32",
        "value": "t_bool"
      },
      "t_mapping(t_address,t_mapping(t_address,t_bool))": {
        "encoding": "mapping",
        "key": "t_address",
        "label": "mapping(address => mapping(address => bool))",
        "numberOfBytes": "32",
        "value": "t_mapping(t_address,t_bool)"
      },
      "t_mapping(t_address,t_struct(UintSet)2945_storage)": {
        "encoding": "mapping",
        "key": "t_address",
        "label": "mapping(address => struct EnumerableSet.UintSet)",
        "numberOfBytes": "32",
        "value": "t_struct(UintSet)2945_storage"
      },
      "t_mapping(t_bytes32,t_uint256)": {
        "encoding": "mapping",
        "key": "t_bytes32",
        "label": "mapping(bytes32 => uint256)",
        "numberOfBytes": "32",
        "value": "t_uint256"
      },
      "t_mapping(t_bytes4,t_bool)": {
        "encoding": "mapping",
        "key": "t_bytes4",
        "label": "mapping(bytes4 => bool)",
        "numberOfBytes": "32",
        "value": "t_bool"
      },
      "t_mapping(t_uint256,t_address)": {
        "encoding": "mapping",
        "key": "t_uint256",
        "label": "mapping(uint256 => address)",
        "numberOfBytes": "32",
        "value": "t_address"
      },
      "t_mapping(t_uint256,t_string_storage)": {
        "encoding": "mapping",
        "key": "t_uint256",
        "label": "mapping(uint256 => string)",
        "numberOfBytes": "32",
        "value": "t_string_storage"
      },
      "t_string_storage": {
        "encoding": "bytes",
        "label": "string",
        "numberOfBytes": "32"
      },
      "t_struct(Map)2004_storage": {
        "encoding": "inplace",
        "label": "struct EnumerableMap.Map",
        "members": [
          {
            "astId": 1999,
            "contract": "contracts/ETHMapZones.sol:ETHMapZones",
            "label": "_entries",
            "offset": 0,
            "slot": "0",
            "type": "t_array(t_struct(MapEntry)1996_storage)dyn_storage"
          },
          {
            "astId": 2003,
            "contract": "contracts/ETHMapZones.sol:ETHMapZones",
            "label": "_indexes",
            "offset": 0,
            "slot": "1",
            "type": "t_mapping(t_bytes32,t_uint256)"
          }
        ],
        "numberOfBytes": "64"
      },
      "t_struct(MapEntry)1996_storage": {
        "encoding": "inplace",
        "label": "struct EnumerableMap.MapEntry",
        "members": [
          {
            "astId": 1993,
            "contract": "contracts/ETHMapZones.sol:ETHMapZones",
            "label": "_key",
            "offset": 0,
            "slot": "0",
            "type": "t_bytes32"
          },
          {
            "astId": 1995,
            "contract": "contracts/ETHMapZones.sol:ETHMapZones",
            "label": "_value",
            "offset": 0,
            "slot": "1",
            "type": "t_bytes32"
          }
        ],
        "numberOfBytes": "64"
      },
      "t_struct(Set)2559_storage": {
        "encoding": "inplace",
        "label": "struct EnumerableSet.Set",
        "members": [
          {
            "astId": 2554,
            "contract": "contracts/ETHMapZones.sol:ETHMapZones",
            "label": "_values",
            "offset": 0,
            "slot": "0",
            "type": "t_array(t_bytes32)dyn_storage"
          },
          {
            "astId": 2558,
            "contract": "contracts/ETHMapZones.sol:ETHMapZones",
            "label": "_indexes",
            "offset": 0,
            "slot": "1",
            "type": "t_mapping(t_bytes32,t_uint256)"
          }
        ],
        "numberOfBytes": "64"
      },
      "t_struct(UintSet)2945_storage": {
        "encoding": "inplace",
        "label": "struct EnumerableSet.UintSet",
        "members": [
          {
            "astId": 2944,
            "contract": "contracts/ETHMapZones.sol:ETHMapZones",
            "label": "_inner",
            "offset": 0,
            "slot": "0",
            "type": "t_struct(Set)2559_storage"
          }
        ],
        "numberOfBytes": "64"
      },
      "t_struct(UintToAddressMap)2322_storage": {
        "encoding": "inplace",
        "label": "struct EnumerableMap.UintToAddressMap",
        "members": [
          {
            "astId": 2321,
            "contract": "contracts/ETHMapZones.sol:ETHMapZones",
            "label": "_inner",
            "offset": 0,
            "slot": "0",
            "type": "t_struct(Map)2004_storage"
          }
        ],
        "numberOfBytes": "64"
      },
      "t_uint256": {
        "encoding": "inplace",
        "label": "uint256",
        "numberOfBytes": "32"
      }
    }
  }
}